:0300000002013BBF
:0C013B00787FE4F6D8FD75812002018277
:1002CF000C09C0F9A4B0999282F88090C188051AE0
:0A02DF000000000000011900C1003A
:10000300200052AE17AF187C007D051201C78E1772
:100013008F187C037DE81201D98F1AAE17AF187CB5
:10002300037DE81201D9AA04AB057D647C00AF030C
:10003300AE021201D98F1B7D647C00AF03AE0212A6
:1000430001D97E007F0ACFCDCFCECCCE1201D98F7E
:100053001C751D0A22AE15E5167802C333CE33CEC6
:10006300D8F9F5168E15FF7C037DE81201D98F1A96
:10007300AE15AF167C037DE81201D9AA04AB057D4A
:10008300647C00AF03AE021201D98F1B7D647C0038
:10009300AF03AE021201D97E007F0ACFCDCFCECC03
:0A00A300CE1201D98F1C751D0B222F
:100290007580FFC2B3C2A7D2A600000000C2A6D2DA
:1002A000B300000000C2B330B2FDD2A7AF80C2A736
:0102B000222B
:0402B1007F1E7E002E
:1002B500EF1FAA0670011E4A600F7C007D7DED1DB3
:0902C50070011C144C60E980F585
:0102CE00220D
:10022E00E4F519AF19C3EF9404748094805052749E
:10023E001A2519F8E62409F8E6FD200008EF6401F6
:10024E00700353057F300007E519700353057FC215
:10025E00B1C2B4C2B5C2B68D90E51914600E146069
:10026E000F1460102403700ED2B6800AD2B5800629
:10027E00D2B48002D2B17F017E001202B505198080
:01028E00A2CD
:01028F00224C
:1000AD00C2B7C2A4E4F50820A01E1202B120A01808
:1000BD001202B105080508C3E50894F07480948018
:1000CD0040037508F030A0FD20A1201202B120A13F
:1000DD001A7F787E001202B5AF08EF64026003EF5D
:1000ED007005E4F50880041508150820A20C7F0A98
:1000FD007E001202B5B20030A2FDC2B7C2A48508BF
:10010D0080D2A4D2B720000CD2A512029075170090
:10011D008F18800AC2A51202907515008F16120055
:0E012D000312022E7F017E001202B50200B402
:100147000200ADE493A3F8E493A34003F68001F221
:1001570008DFF48029E493A3F85407240CC8C333B9
:10016700C4540F4420C8834004F456800146F6DF88
:10017700E4800B01020408102040809002CFE47E47
:10018700019360BCA3FF543F30E509541FFEE4937D
:10019700A360010ECF54C025E060A840B8E493A344
:1001A700FAE493A3F8E493A3C8C582C8CAC583CA6F
:1001B700F0A3C8C582C8CAC583CADFE9DEE780BE27
:0102E9000014
:1001C700EF8DF0A4A8F0CF8CF0A428CE8DF0A42E4C
:0201D700FE2206
:1001D900BC000BBE0029EF8DF084FFADF022E4CC0A
:1001E900F875F008EF2FFFEE33FEEC33FCEE9DECD3
:1001F900984005FCEE9DFE0FD5F0E9E4CEFD22ED19
:10020900F8F5F0EE8420D21CFEADF075F008EF2F62
:10021900FFED33FD4007985006D5F0F222C398FD53
:050229000FD5F0EA22F0
:00000001FF
